:020000040800F2
:1000000000500020750200087D0200087F020008F1
:100010008102000883020008850200080000000039
:10002000000000000000000000000000870200083F
:1000300089020008000000008B0200088D02000801
:100040008F0200088F0200088F0200088F0200084C
:100050008F0200088F0200088F0200088F0200083C
:100060008F0200088F0200088F0200088F0200082C
:100070008F0200088F0200088F0200088F0200081C
:100080008F0200088F0200088F0200082D57000819
:10009000395700088F0200082D3300088F0200082E
:1000A0008F0200088F0200088F0200088F020008EC
:1000B0008F0200088F0200088F0200088F020008DC
:1000C0008F0200088F0200088F0200088F020008CC
:1000D0008F0200088F0200088F0200088F020008BC
:1000E0008F0200088F0200088F02000800F002F85B
:1000F00000F098F80AA090E8000C82448344AAF12A
:100100000107DA4501D100F08DF8AFF2090EBAE827
:100110000F0013F0010F18BFFB1A43F0010318473B
:10012000E4B0000004B10000103A24BF78C878C1E0
:10013000FAD8520724BF30C830C144BF04680C60ED
:10014000704700000023002400250026103A28BF35
:1001500078C1FBD8520728BF30C148BF0B60704739
:100160006E2900F08687702900F0858266290AF0E2
:10017000028465290AF0FF8367290AF0FC8361295C
:100180000AF0FB8303681B0A28BF41F0800169293C
:1001900000F0F681642900F0F381752900F0F08108
:1001A0006F2901F08680782900F05182E92901F059
:1001B0002180E42901F01E80F52901F01B80EF2940
:1001C00001F08380F82900F050820368DB0928BF22
:1001D00041F08001632900F09087732900F0958732
:1001E000E32902F0EB80F32902F0F0800020704751
:1001F0001FB59DE8030000F09BFE00F0CAFC02F072
:10020000A9FB0400002000210AF00EFA401C6060E7
:10021000002000210AF01EFAE06001F001FC00F06D
:1002200047FE1FBD07F0B8FF114603B407F0C4FF37
:1002300003BCFFF7DDFF03F06FF808F0FBFB0000E5
:100240000B49D1F800C04A685CF8043B10681844B8
:1002500042F8040B8C4528BFA1F1DC0C8A4228BF70
:10026000A1F1DC02C1F800C04A6020F000407047F4
:10027000B41000200648804706480047FEE7FEE726
:10028000FEE7FEE7FEE7FEE7FEE7FEE7FEE7FEE746
:10029000A9540008ED00000800487047D80E00205F
:1002A00070B5064600F028FE056806F10B0020F048
:1002B0000704B4429CBF002070BD2B466A68BAB1E7
:1002C0001068A04210D304F1080188423CBF506876
:1002D000586007D35168101941601168091B01600B
:1002E00058601460101D70BD13465268002AE7D193
:1002F0002146284600F008FE0028DED170BD70B50A
:100300000446051F00F0F8FD0068002C14BF446887
:1003100070BD002C18BFAC423CBF20466468F8D3C7
:1003200001680A18AA4218BF456003D12A68054629
:100330001144016028684119A1421CBF6C6070BD66
:100340006168696021680844286070BD53EA020C46
:1003500000F069802DE9F04B4FF00006002B1FBF25
:10036000B3FA83F503FA05F424FA05F65E4012BFEA
:100370001643B2FA82F502FA05F4C5F120051EBF54
:1003800022FA05FC44EA0C04203556EA044C4FEAF4
:10039000144418BF641C4FF000084FF0000990424D
:1003A00071EB030C39D3002919BFB1FA81F701FAB7
:1003B00007F6B0FA80F700FA07F6C7F120071EBF6C
:1003C00020FA07FC46EA0C062037B6FBF4FCA7EB44
:1003D0000507103F07F01F0BCBF120060CFA0BFBB3
:1003E0002CFA06F644BFB3460026202FA4BF5E4673
:1003F0004FF0000B5BEA060C08BF4FF0010B19EB46
:100400000B09ABFB027C48EB0608C01B06FB02CCC9
:100410000BFB03CC71EB0C01C1E70B4602464146D6
:100420004846BDE8F08B13B54FF000004FF00001D7
:10043000AFF30080BDE81C40704700007CB51D464E
:1004400016460C00009001D02044401E074B7B4410
:100450002A4669460190304600F025FE05461CB14B
:100460000020694600F032FE28467CBD850C000065
:100470000B460146184600F04DBE00000FB41CB5F7
:10048000084B06AA7B4469460090059800F00BFED5
:1004900004460020694600F019FE20461CBC5DF8A9
:1004A00014FB0000450C00000FB47CB50C0009AA39
:1004B000009001D02044401E084B7B4469460190C7
:1004C000089800F0F0FD05461CB10020694600F0D8
:1004D000FDFD28467CBC5DF814FB0000190C0000F3
:1004E00070B5044685690068C10601D5302600E074
:1004F0002026C00707D070BDD4E9012130469047BF
:10050000206A401C20626D1EF6D570BD70B5044691
:1005100085690078C00707D170BDD4E9012120208A
:100520009047206A401C20626D1EF6D570BD70B5E4
:100530000C460546012A05D02878800600D5EA69D0
:10054000002302E0012305E05B1C934202D2E05C41
:100550000028F9D1A869E618C01AA861286A1844C9
:1005600028622846FFF7BCFF04E0D5E9012114F812
:10057000010B9047B442F8D32846FFF7C7FF70BD80
:100580002DE9F0410646002410687529314616A56C
:1005900010D000F003FD002802DA404213A507E066
:1005A00031688A0701D512A502E0490704D511A5D3
:1005B000012401E000F0FBFC00210A2206F12407DF
:1005C00009E0B0FBF2FCB0FBF2F302FB1C003030A0
:1005D00078541846491C0028F3D123462A46304651
:1005E000BDE8F04100F0ECBC000000002D00000070
:1005F0002B00000020000000F0B40D460188090522
:1006000002D5214C7C4402E01F4C7C440E34002176
:1006100000F1240608E002F00F071209E75D42EA44
:1006200003721B097754491C52EA0307F3D102787D
:100630000023120704D5702D06D009B1022311340E
:100640002246F0BC00F0BCBC01231034F8E770B5C2
:1006500004460D462146106800F0A9FC02462946D2
:100660002046BDE870400023C6E7D21D22F00703F4
:10067000D3E90023C0E70368126843F02003036056
:100680000823C3610023B7E7A4A600002DE9F05FAB
:10069000894604464FF0000ADFF874B1FB44C0F805
:1006A00020A02046E1688847002874D0252806D07D
:1006B000D4E901219047206A401C2062F1E700261E
:1006C0005F462046E16888472028054607DB312D34
:1006D00005D2781910F8200C08B10643F1E7B007ED
:1006E00001D526F00406C4F81CA00027C4F818A001
:1006F0002A2D09D0284607F057FD38B304EB8708A8
:10070000303DC8F8185019E059F8041B204604EB96
:1007100087029161E1688847012F054618D1E06999
:10072000002820DA26F020061DE0D8F8180000EB9B
:10073000800005EB40003038C8F818002046E1681A
:100740008847054607F030FD0028EED1012F0AD07A
:100750002E2D08D12046E16888477F1C0546022FD0
:1007600046F02006C4DBA069002803DA404246F0C8
:100770000106A061F00701D026F010066C2D0BD009
:10078000682D09D04C2D39D06A2D35D0742D35D037
:100790007A2D33D016E038E0E1682F4620468847AE
:1007A000B842054609D16C2F26D04FF48060E1682D
:1007B000064320468847054604E06C2F1AD04FF4C4
:1007C000807006430DB3A5F14100192802D82035E9
:1007D00046F400664A462946204626604E46FFF704
:1007E000BFFC80B101280BD0F61D26F0070000F1F8
:1007F000080956E74020E4E78020D8E70020D6E744
:1008000006F104094DE7284652E7206ABDE8F09F4B
:1008100034A600000FB400B58DB010A90990009166
:100820000B904FF0FF300A9000200C90064878445F
:100830000690064878446A4607900F9909A800F088
:1008400063FD0DB05DF814FBF70A00000F0B00000C
:100850002DE9FF5F1D464FF0FF3B91464FF000082A
:100860005F46D5E90146A96901987F1C8847296A36
:10087000824688470028F6D1BAF1FF3F0CD0002EFF
:1008800024F4C06419DD600614D5BAF12B0F09D029
:10089000BAF12D0F0ED103E0584604B0BDE8F09F29
:1008A00044F48064A96901987F1C8847761E8246BB
:1008B000002E02DDBAF1300F03D0B9F1000F26D0BF
:1008C00032E0A969761E01987F1C44F400748847C1
:1008D000002E824605DDBAF1780F06D0BAF1580F26
:1008E00003D0B9F1000F10D01EE0B9F1000F02D013
:1008F000B9F1100F18D1A969761E01987F1C24F454
:10090000007488478246102002E0082000E00A2098
:10091000814609E0A96908FB0908761E01987F1C39
:1009200044F4007488478246002E05DD494650464F
:1009300000F0D6FC0028EDDAE96901988847A005A7
:1009400002D46FF00100A8E7E00725D1600613D5B7
:10095000600502D5C8F1000000E0404629680A1D84
:100960002A600968220501D5087015E0220701D523
:10097000088011E008600FE02868011D2960006808
:10098000210502D580F8008006E0210702D5A0F8F5
:10099000008001E0C0F8008038467EE770B506466A
:1009A000FFF77AFC0468054630460A22002100F071
:1009B000DBFC2C6070BD000070B50446C068810788
:1009C00013D0800601D5A56A04E0A16960680844D7
:1009D0002169451A204600F0DFFF0022064629461D
:1009E000204600F005FF304670BD002070BD70B598
:1009F00010B1BDE87040DFE70025074C6E1E07E030
:100A00002046FFF7D9FF00B13546206D20F00104E4
:100A1000002CF5D1284670BDDC0E00202DE9F041F8
:100A20000C4607461646104600F078F82078611C00
:100A300061280AD0722802D077283CD102E0012533
:100A4000002405E00225042402E0082448F20205FF
:100A500011F8010B2B2806D0622809D011F8010CDF
:100A600074280AD00BE045F0030544F00204EFE7D8
:100A700045F0040544F00104EAE744F01004384668
:100A8000214607F0DFFC411C15D000213161716067
:100A90004FF40071F560F1617061200704D53046B4
:100AA0000222002100F0A4FE306D40F0010030650C
:100AB0003046BDE8F0810020FBE72DE9F0410D460E
:100AC0000646104C206DC10704D0410804D020F028
:100AD0000104F7E722460EE05420FFF7E1FB070090
:100AE0000ED0206D47F0010108435421206538469F
:100AF00000F077F93A4629463046BDE8F0418DE7E7
:100B00000020D6E7DC0E002011B14FF4807201E026
:100B10004FF480624FF4007300F0E6BE2DE9F04719
:100B200004464FF000094FF0FF37C568D4E904864A
:100B3000A80707D0204600F02FFF304607F016FC2C
:100B4000002802DA3846BDE8F087280502D540467D
:100B5000FFF7D5FB4C21204600F043F9206D20F033
:100B6000010020654846EEE70B4910B5A1F17C0273
:100B70000A4CC2E93712372106E000EB104342F875
:100B80002130074B00FB03400B1EA1F10101F4DCF7
:100B900010BD0120E8E7000054100020E119D666DE
:100BA000CD0D0100401ECAB210F8011F8A4202D0CA
:100BB0000029F9D10020704740EA010310B59B07D6
:100BC0000FD1042A0DD310C808C9121F9C42F8D0B7
:100BD00020BA19BA884201D9012010BD4FF0FF3068
:100BE00010BD1AB1D30703D0521C07E0002010BD7E
:100BF00010F8013B11F8014B1B1B07D110F8013B0A
:100C000011F8014B1B1B01D1921EF1D1184610BDEA
:100C100010B5431C02E010F8011B71B18107FAD135
:100C20004FF0013202C88C1A8C4314EAC211F9D079
:100C3000C01A0A0603D0C01E10BDC01A10BD0A0497
:100C400001D0801E10BD0902FCD0401E10BD40EA3C
:100C5000010370B59B072ED14FF00136042A2AD329
:100C600008C810C99D1B9D43121F15EAC61517D051
:100C7000D8B2E1B2401A50EA056110D198B2A1B2DF
:100C8000401A50EA05410AD123F07F4024F07F4109
:100C9000401A50EA052102D1180EA0EB146070BD75
:100CA000A342DBD018BA21BA884201D9012070BD15
:100CB0004FF0FF3070BD0AB9002070BD10F8013B45
:100CC00011F8014B63B1A3420AD1521E08D010F8AB
:100CD000013B11F8014B1BB1A34201D1521EEDD1D2
:100CE000181B70BD032A40F2308010F0030C00F096
:100CF000158011F8013BBCF1020F624498BF11F856
:100D000001CB00F8013B38BF11F8013BA2F104020E
:100D100098BF00F801CB38BF00F8013B11F0030386
:100D200000F02580083AC0F0088051F8043B083AEA
:100D300051F804CBA0E80810F5E7121D5CBF51F88C
:100D4000043B40F8043BAFF30080D20724BF11F806
:100D5000013B11F801CB48BF11F8012B24BF00F86B
:100D6000013B00F801CB48BF00F8012B704710B5DC
:100D7000203AC0F00B80B1E81850203AA0E8185093
:100D8000B1E81850A0E81850BFF4F5AF5FEA027C54
:100D900024BFB1E81850A0E8185044BF18C918C0C3
:100DA000BDE810405FEA827C24BF51F8043B40F864
:100DB000043B08BF7047D20728BF31F8023B48BF49
:100DC00011F8012B28BF20F8023B48BF00F8012B87
:100DD000704702F0FF0343EA032242EA024200F0B6
:100DE000C4BE4FF0000200B5134694469646203923
:100DF00022BFA0E80C50A0E80C50B1F12001BFF4D4
:100E0000F7AF090728BFA0E80C5048BF0CC05DF839
:100E100004EB890028BF40F8042B08BF704748BF87
:100E200020F8022B11F0804F18BF00F8012B7047FB
:100E30004FF0013C50F8042B51F8043B9A4221D169
:100E4000A2EB0C03934313EACC1317D150F8042BF5
:100E500051F8043B9A4215D1A2EB0C03934313EAD9
:100E6000CC130BD150F8042B51F8043B9A4209D112
:100E7000A2EB0C03934313EACC13DBD04FF000003A
:100E8000704700BFD01A01BAB1FA81F101F0180120
:100E900022FA01F0CB40C1F12001DBB2C0B2C01A8E
:100EA0002CFA01F3D11A914311EAC311E6D170472C
:100EB00070B5064C7C44064D7D4403E02068204418
:100EC0008047241DAC42F9D170BD000098A40000F9
:100ED000A0A400002DE9F04117460E46054633B1A7
:100EE00007FB0354E41B2046B047A542FAD1A5F105
:100EF0000800BDE8F081000000487047BC100020E9
:100F0000704770477047704738B504460A4600205E
:100F1000694601F0FCFC002808BF38BD0246009974
:100F2000204600F04BFE012038BD012001F0C4BC7A
:100F3000F8B501F0E1FC054600200C46102000BF8A
:100F40000646A819A0420DD932466946002001F094
:100F5000DEFC070008BF01F0AFFC0098A04218BFFC
:100F60000546C419FFF7C8FF05600746F01D20F0CD
:100F700007004619284600F00AF8B44208BFF8BD39
:100F8000A21B31463868BDE8F84000F017BE0021CA
:100F90000160C0E9011070471020704709684A05D8
:100FA00001D540B27047C905FCD500B27047096849
:100FB0004A0501D5C0B27047C905FCD580B270475B
:100FC0002DE9F0470D4699469246044600F1240863
:100FD0000168880604D5E06921F01001216000E075
:100FE0000120A84201DD471B00E00027A1697A1912
:100FF00002EB0900081AA0612078C00602D420463E
:10100000FFF76EFA002608E0D4E901211AF806007D
:101010009047206A401C761C20624E45F4DB207805
:10102000C0060AD52046FFF75BFA06E0D4E90121A5
:1010300030209047206A401C2062381EA7F101072B
:10104000F4DC07E0D4E9012118F805009047206A94
:10105000401C2062281EA5F10105F3DC2046FFF7A5
:1010600055FA2078000602D50220BDE8F08701205D
:10107000FBE711680268006A530501D508700AE0B1
:10108000D30501D5088006E0130603D5C217C1E9D0
:10109000000200E0086001207047000001694A1C5E
:1010A00002610878704700B58FB0CDE901310021A9
:1010B000059105497944CDE9031011466846FFF7CB
:1010C000E5FA0FB000BD0000E5FFFFFF0A6802F877
:1010D000010B0A607047D1E900239A4202D2531CE7
:1010E0000B601070704710B5436913B1AFF3008007
:1010F00001E0FFF71CFA012010BD127800F1240175
:101100000A7000224A700122EDE711684FF0FF32A9
:10111000E9E70000074B70B50D467B44FFF7C3FFBE
:101120000446284600F058F910B14FF0FF3070BD6A
:10113000204670BD4F7900002DE9FF5F15468A46B5
:101140000446DFF8AC80F8440027D8E900103E469A
:10115000CDE9001010E03AF816106A4602A801F036
:101160007FFB411C07D02178890603D5E269391835
:1011700091420DD80744761C2078800602D5E0699C
:10118000B84205DDAE42E6DB3AF816000028E2D1AF
:10119000A069C01BA0612046FFF7A2F9D8E90010A2
:1011A000CDE90010002017E03AF818106A4602A8AE
:1011B00001F056FBB0F1FF3F81460BD000250DF149
:1011C000080B05E0D4E901211BF8050090476D1CD0
:1011D0004D45F7D308F10100B0428046E4DB206AB8
:1011E000384420622046FFF791F9BDE8FF9F0000D8
:1011F0009E9B00002DE9F0418046D21D22F007029F
:101200000025D2E90002F52915A614D0011E72F1BD
:10121000000106DA0023D0EB030063EB020211A603
:1012200008E0D8F800108B0701D50FA602E04907A7
:1012300001D50EA601251146002408F1240704E07B
:1012400000F0D6FC30323A55641C50EA0102F7D166
:101250002B46324621464046BDE8F041FFF7B0BE7E
:10126000000000002D0000002B0000002000000006
:1012700030B4002100F1240408E002F00705D20890
:10128000303542EA4372DB086554491C52EA0305D3
:10129000F3D10468002310A2250707D5A40600D4C3
:1012A00021B1C46901230DA2641EC46130BCFFF7E3
:1012B00087BE10B5044621461068FFF778FE024647
:1012C0002046BDE810400023D2E7D21D22F00701DE
:1012D000D1E90023CCE7000000000000300000004E
:1012E0003A2800D2303820F02002412A01D3A2F15E
:1012F0003700884201D34FF0FF3070470268114435
:101300001378016018467047D160054979445161EE
:1013100004497944116200211161114601F05AB863
:10132000EDFFFFFF65090000426842B1016811F856
:10133000013B23B1521EC0E900121846704701213B
:10134000C160881E704742685AB1C368016843B9DA
:1013500083688B4205D0491E521CC0E90012002050
:1013600070474FF0FF3070472DE9F04791460F4628
:1013700080460446002614F8015B2DB100F016FCEF
:101380000068405DC007F6D12B2D02D02D2D18D05E
:10139000641E4A463946204601F0D6F927B139681D
:1013A000A14201D1C7F800804FF0020471050BD5AE
:1013B0004042002803DDFEF76FFF0460A007BDE890
:1013C000F08746F48066E4E70028F8DAFEF764FF69
:1013D00004606FF00040F2E7007B00F0800070478F
:1013E00070B50D4601461446D36850692A4607F089
:1013F00033F9002807DA411C07D0E16820F00040EB
:1014000041F48041E160281A70BD204600F090FA56
:101410004FF0FF3070BDC1680022026021F480519E
:1014200041F0400111F4C06FC16001D0826070478B
:1014300002694168891AC269891A816070472DE979
:10144000F0470446C06840F48000E060010312D514
:1014500020F40020E060810606D4E26A61688A42D6
:1014600000D80A46511A216040F40010E06094F858
:101470002500BDE8F08720F40010E060800602D56A
:10148000204600F0ACFAE06842F281014FF0FF39EB
:101490000140012903D0204600F04AFAB6E0216855
:1014A000002600290ADAC94340F480502160C4E9CB
:1014B00002606068411C61600078DAE744F2400134
:1014C00008420CD020F4A04040F040002660E060CC
:1014D00021696068401AE169401AA06096E02169BC
:1014E00091B9C00310D4E069FEF7DAFE2061B0B113
:1014F000E06840F4006010F4407FE06002D140F406
:101500008070E06020696060E068D4F814A0C106D3
:101510001AD5C0030ED5204600F03EFA14E004F1BF
:10152000240020610120E061E06820F4407040F474
:101530008060E6E721696068401AA169014450466D
:1015400007F0C2F80028A6DBE068C0032AD561686E
:10155000E06A884200D808462169451AE069471BBD
:101560001BD02046D4F8188000F016FA08EB0501CD
:101570005046C4F8188007F0A7F800288BDBE06815
:1015800040F40030E060000202D5A0692844A06168
:10159000E1692069C91B45180DE0204600F0FCF9FF
:1015A000E769F5E725696168D4E90607491BE56243
:1015B00008446560A061E06820F0100010F4C06F7E
:1015C000E06002D0204601F02FF9E06840F480503E
:1015D000C4E90260000205D52069E06260606FF036
:1015E000010046E7224639462846FFF7F9FE411C2E
:1015F0000CD02918E16258B1401E2060681C606060
:10160000E06840F40030E060287832E7484630E790
:1016100065602046FFF7FFFEF8E72DE9F047054635
:101620000C46C86820F4201040F48000C860800692
:1016300002D5084600F0D3F9E06841F282014FF08C
:10164000FF390140022903D0204600F071F9B5E0CE
:1016500000F42041B1F5004F0FD1C00306D56168F9
:10166000E06A884200D80846606006E02069E062CF
:101670006060606906F0A0FEA061A0680022EEB282
:1016800000280DDAE1688B050AD4C043A06041F45C
:1016900090302260E0606068411C61600670A5E0E7
:1016A000E0689046226040F40050E060206968BB2A
:1016B000606906F0A7FE012704F12405A0B1A08906
:1016C00010F4407F08D0E069FEF7EAFD206118B110
:1016D000E06840F4006016E0E7612561E06820F40E
:1016E000407040F480600EE0E069FEF7D9FD00280C
:1016F0002061F1D0E06840F4006010F4407FE060C9
:1017000002D140F48070E06020696060E068256983
:101710006FF0010AC1051FD56168E06A884200D8F0
:101720000846411B04D02246284600F00BF9F0BBC6
:10173000E068010203D5E562C4E9015854E0691C80
:10174000E1626160E16940F48030491EC4E9021041
:1017500030462E70BDE8F087010202D500F48032D9
:101760000AE06068411C61600670E0680A2E40F47F
:101770008030E06006D00022E16A6068814203D9CF
:101780000B4602E00122F7E70346A7895B1B7F05B2
:1017900003D4E7699F4200DDE2B1814200D80146EF
:1017A000E5620F1AC4E90158002B09DD00E005E0ED
:1017B00022461946284600F0C5F808B14846C9E750
:1017C00047B1A069E5626560C01BA061E06840F0B8
:1017D0001000E060E068000208D56168A069E56279
:1017E000491B08446560A0615046B3E73046B1E745
:1017F0002DE9F041044616460D464769007B8007F7
:101800002ED0384606F0FEFD50BB3EB3012E02D06E
:10181000022E25D104E0204600F0E5FF05441DE03E
:10182000384606F0C9FDE168002841F01001E1608A
:1018300005DA204600F07CF80120BDE8F081C903FC
:101840000BD56268E16A914200D81146A269114441
:101850002269891A814200DD08460544002D01DA1B
:101860000220EAE7E16A6068E268814206D29103F9
:10187000E06203D522F4003141F01002A66900278E
:10188000AE4213DCE16A814201D90B4600E0034617
:1018900003EB060C2369ACEB030CAC4506DD81427F
:1018A00001D98C4600E084469C4505D1A76027609D
:1018B00042F02000A5620DE0AD1BE669AE1B81423F
:1018C000A66000D90846C01A281A2060581960601E
:1018D00022F0200003490840E060002084F84870AE
:1018E000ABE70000BFCFD7FF70B5C468A50713D022
:1018F000650211D4B2F5807F09D0B2F5007F06D021
:10190000B2F5806F08D1012300F1240106E05D1ECD
:101910006FF07F46B54201D3012070BD0161C36104
:10192000416024F470611143C160002070BD00006B
:10193000C16821F4001141F08001C1600021816083
:10194000016070472DE9F047814614460E464FF07E
:10195000FF383248D5685769054209D03846A16931
:1019600006F0B2FE002811DB2C48C0430540E560BC
:101970002B4632464946384606F0CEFEA16920F095
:101980000042B21A11440028A16103D02046FFF79B
:10199000CFFF4046BDE8F08770B504460569C06AD0
:1019A0006168884200D80846E16821F42011E160AE
:1019B000C90312D5A84208D02246411B2846FFF78A
:1019C000C1FF10B14FF0FF3070BD0020E562C4E9E7
:1019D0000150E06820F48030E060002070BD10B558
:1019E0000446C06820F02000E060A16AA069884237
:1019F0000DD02046FFF7D0FFE06820F4405040F0C3
:101A00001000E060A06AA0612069E062606044F2BA
:101A10004001E0688843E06010BD00001000020053
:101A200010B542485421FFF7DCF941485421FFF733
:101A3000D8F940485421FFF7D4F93F493B483C4A84
:101A40003F4B08603D490A603A491960531C0365E1
:101A5000481C1065012008653B48344A39A1784488
:101A6000FEF7DCFF20B9384878440A3800F01DFF43
:101A700037482F4A35A17844FEF7D0FF20B93448C3
:101A800078440A3800F011FF32482A4A2FA17844DE
:101A9000FEF7C4FF20B92F4878440A3800F005FF4C
:101AA00040232248DC0000212246FFF71DFF20B121
:101AB00025487844543800F0F8FE1D48224640235B
:101AC0000021FFF711FF20B121487844543800F07D
:101AD000ECFE1848224610230021FFF705FF0028DE
:101AE00006D01C487844BDE81040563800F0DDBEF2
:101AF00010BD104870B5006D20F001040B48FFF7D1
:101B00000DF80B48FFF70AF80A48FFF707F809E055
:101B1000206D20F001052046FFF700F82046FEF773
:101B2000EEFB2C46002CF3D170BD0000DC0E002033
:101B3000300F0020840F0020880100208C0100203D
:101B40009001002072000000DE8F0000770000008E
:101B5000CD8F0000BD8F000010B500F0B5FEBDE8D0
:101B6000104000F09DBE4FF000020429C0F012802A
:101B700010F0030C3FF437A9CCF1040CBCF1020FB8
:101B800018BF00F8012BA8BF20F8022BA1EB0C0115
:101B9000FFF729B95FEAC17C24BF00F8012B00F8E8
:101BA000012B48BF00F8012B7047000010B500F072
:101BB000D1FE001D10BD00BF718A000003464068C1
:101BC0008C46002818BF88423CBF03464068F8D3C3
:101BD00018681844884207D00CF1030020F0070071
:101BE000001D411A521A0146081D0A60FEF787BB04
:101BF00030B5B0F10A024FEA900E71F100034EEADF
:101C0000817EB0EB0E0061EB91014FEA101E4EEAAF
:101C1000017E10EB0E0041EB11114FEA102E4EEA3F
:101C2000016E10EB0E0041EB11214FEA104E4EEA0F
:101C3000014E10EB0E0041EB1141401841F1000143
:101C40004FEAD00040EA41704FEAD10110EB800525
:101C50004FEA810444EA907444EB01046D1944EBAB
:101C60000404521BA3414FF0000348BF0A3200D5C1
:101C700030BD401C41F1000130BD10B50446FFF7F6
:101C800095FF0068005D00F0010010BD70472DE970
:101C9000FF4F0C461E464FF0FF378BB0D2E90001D4
:101CA000DDF860800A908A46C1F30A5505B93D46C1
:101CB000002108464FF00000BAF1000F00F4400088
:101CC00005DA00EB80004FF4400101EA50004FEAD2
:101CD0009059B9F1010F00DDB9460A9850EA4A005F
:101CE0000ED044F61050A5F2FF3545432F14B8F13D
:101CF000000F1ED07542291E1EDDC9F100021CE036
:101D0000B8F1010F4FF0000001D0302103E0F243A1
:101D100005E02154401CB042FBDB3046002200218C
:101D200021540B99C1F80880C1E900200FB0BDE82B
:101D3000F08FBD1B6D1CDEE74A4600DA694206A83B
:101D400000F04CFE06AB93E8070003AB83E8070006
:101D500050460A9900F018FF8DE80700A0F50050E2
:101D60001F3800900398002D0ADD42F21F014A46F9
:101D70000844002303A90390684601F081F909E0B3
:101D8000A0F500504A461F38002303A90390684677
:101D900001F08BF98DE807000004000C03D04FF030
:101DA000FF30410800E01046B8F1000F03D00022D8
:101DB000009215461EE0751E05D4FFF719FF30325C
:101DC00062556D1EF9D5B3460122084302D00022A8
:101DD0007F1C04E02078302801D100227F1E002AD9
:101DE000099784D01DE0112D07DAFFF701FF30328B
:101DF00062556D1C50EA0102F5D1084302D00098EB
:101E0000C8B10EE00021681E05E0235C625C6354EB
:101E10002254401E491C8142F7DBAB46A81B401EE2
:101E20000990002004F80B000B98099AC0F808806C
:101E3000C0E9002B7AE711264FF0000857E72DE99B
:101E4000F04F88460446D21D22F0070191B0D1E937
:101E50000001CDE90A0106F0DDF802460B98C00F3B
:101E600001D02D2007E02068810701D52B2002E05A
:101E7000202101EAC000032A099001D0072A05DBCE
:101E800003464146204600F069FD0BE120788006BC
:101E900001D5E06900E00620B8F1650F814606D063
:101EA000B8F1660F18D0B8F1670F70D131E000209B
:101EB000B9F1110F009001DB112301E009F10103D9
:101EC0000AAA01A90CA8FFF7E2FEDDE90C700026C2
:101ED00009F10105834647E001204B4600904FF091
:101EE00000470AAA01A90CA8FFF7D1FEDDE90DB051
:101EF0000C995D46002610B909F101000D18B9EBE7
:101F0000050003D4C0F1FF3609F10105A5EB090076
:101F10002BE0B9F1010F01DA4FF001090020B9F10E
:101F2000110F0090484601DD112300E003460AAA84
:101F300001A90CA8FFF7ABFEDDE90C704D460026A9
:101F40008346207800070AD4AB4500DA5D4601A835
:101F5000012D04DD411911F8011C302907D04F452E
:101F600002DA17F1040F04DA012082460FE06D1E39
:101F7000EEE7002F02DCED1B3E4403E0781CA84294
:101F800000DD7D1CB81B00F1010A4FF000472078EE
:101F9000000703D4AA4501DB4FF0FF3A0021B7F157
:101FA000004F0DF143088DF8431024D002202B235D
:101FB000002F01DA7F422D230A21021EA0F1010029
:101FC00000DC5FB197FBF1FC97FBF1F201FB1C7C9D
:101FD00017460CF1300C08F801CDEEE7A8F101002E
:101FE00003702188090501D5452100E06521A0F194
:101FF000010800F8011C09980FA9A1EB0807FF1DB3
:1020000000B10120411901EBEA70A1693844081AB6
:10201000401EA0612078C00602D42046FEF760FA78
:10202000099828B1D4E901219047206A401C206218
:102030002078C00622D52046FEF752FA1EE0002E78
:1020400004DBB34502DD01A8805D00E03020D4E967
:1020500001219047206A401C2062761CAAF10100F1
:102060005FEA000A0AD100F075FCC0680168405CB4
:10207000D4E901219047206A401C2062281EA5F166
:102080000105DCDC07E0D4E9012118F8010B9047D9
:10209000206A401C2062381EA7F10107F3DC2046AD
:1020A000FEF734FA032011B041E600002DE9F04FAD
:1020B00004460D46D21D22F0070089B0D0E90097F2
:1020C0004846394605F0A6FF0246F80F01D02D23F9
:1020D00007E02068810701D52B2302E0202101EAD7
:1020E000C0038DF820300BB1012000E00020032A4E
:1020F000824601D0072A04DB2946204600F02EFC48
:102100003FE12078800601D40D2500E0E569C7F3A2
:102110000A560D2D49DA00214FEA175B08464FF0A9
:102120000000002F00F4400007DA00EB80004FF4BD
:10213000400100EBD07001EA60008115012901DD4A
:102140004FF0FF3100224FEA850CBCF1180F06D387
:102150001346ACF118004FF08052C24003E04FF438
:10216000801323FA0CF30CF10C0CBCF1200F04D3F8
:10217000ACF1200C09FA0CF001E007FA0CF0002990
:102180004FF0004801DD18B90FE00ED140450CD3E7
:1021900019EB02095F4121B9404502D19F4329EA69
:1021A0000209BBEB175F00D0761C2088000502D522
:1021B0007B48784402E07A487844193808AA3023EA
:1021C00002F80A30037C0AF10101002E0AF1020A2A
:1021D00053546A4602DC4FF0300101E04FF0310108
:1021E0004FF001088DF8001002D0A6F2FF3603E090
:1021F00059EA470100D06B4E002D02DC2178090717
:1022000004D54FF002082E218DF80110C44600219C
:102210000BE0C7F303433F01C35C491C6D1E02F88A
:102220000830052908F1010801DA002DF1DC002150
:102230000CE000EB1973491C1B786D1E082902F88D
:1022400008304FEA091908F1010801DA002DF0DC25
:1022500021688B0602D516E0A8F10108E04505DDEE
:1022600002EB080313F8013C302BF5D0B8F1000F56
:1022700009DD02EB080313F8013C2E2B03D10907FB
:1022800001D4A8F10108002D05DD3E2102F8081057
:102290006D1E08F10108407C002E02F8080008F1CC
:1022A000010804DA2D20764202F8080002E02B2013
:1022B00002F808000A214FF47A70864208F10108FA
:1022C0000BDB96FBF0F3303302F8083096FBF0F3AB
:1022D00008F1010800FB136601E0642E0CDB6420AA
:1022E00096FBF0F3303302F8083096FBF0F308F178
:1022F000010800FB136601E00A2E06DB96FBF1F0F5
:10230000303002F8080008F1010896FBF1F001FBFB
:102310001060303002F80800A16908F1010808EBEC
:10232000050202EB0A00081AA0612078C00602D458
:102330002046FEF7D5F8216A08AE01EB0A002062BC
:1023400004E0D4E9012116F8010B9047BAF1010A23
:10235000F7D22078C00602D52046FEF7C1F86E46B7
:1023600009E016F8010B3E280FD0D4E9012190476F
:10237000206A401C2062B8F10108F2D22046FEF724
:10238000C5F809B00320BDE8F08F206A2844206218
:1023900003E0D4E90121302090476D1EEBD3F8E72C
:1023A0004D8B000002FCFFFF10B5436913B1AFF382
:1023B000008001E0FEF7C0FE012010BD128800F190
:1023C000240182840022C2840122EDE711684FF0CB
:1023D000FF32E9E72DE9F34F4FF0000A0C4656466D
:1023E0008DB001200C9001F10C000B9062690B98EC
:1023F00001219047051E2DD0252D2CD0216A88471C
:10240000C0B162690B9801219047216A8847002872
:10241000F7D16269411E0B98904700E0761CA169D4
:102420000D988847216A88470028F7D1E1690D98FF
:102430008847DBE7A1690D988847A842074601D184
:10244000761CD3E7E1690D9888477F1C02D1BAF169
:10245000000F6FD06BE162690B9800273D4639464B
:1024600090472A2804D162690B98012190470125E1
:10247000DFF8D08262690B9801219047A0F130010A
:102480000A290AD24745E5DC07EB870100EB410743
:10249000303FDFD445F01005ECE7E90601D46FF0DA
:1024A00000476C280AD04C2814D0682815D06A2818
:1024B0000DD074281CD07A281AD01DE062690B98C0
:1024C000012190476C2802D045F0040514E045F046
:1024D00002050DE045F020050AE062690B98012134
:1024E0009047682802D045F0080505E045F40065EE
:1024F00062690B9801219047C4E9015765283DD0D6
:1025000019DC58287AD00CDC452837D004DC252883
:1025100026D041289ED131E046282FD0472899D196
:102520002CE05B2877D0612828D063287CD06428F1
:1025300023D15AE0F6E06F2848D008DC66281DD089
:1025400067281BD0692821D06E2816D127E0702873
:1025500045D0732868D0752847D078280DD14DE034
:10256000A1690D988847252805463FF469AFE169C0
:102570000D9888476D1C3FF46AAFD8E00D9923464B
:102580006A466FF00100AFF30080C5E045F04000FF
:1025900023464FF000026060A80736D43EE0E8070B
:1025A0007FF447AF2068011D21600068290501D52F
:1025B00006701BE7290701D5068017E7A90703D591
:1025C000F117C0E9006111E706600FE745F0400030
:1025D00023464FF008026060A80716D41EE040F6BC
:1025E0000E0125EA0100606016E045F04000234638
:1025F0004FF00A026060A80707D40FE045F04000E2
:102600006060A80708D5234610220D996FF00100DD
:10261000AFF3008080E007E0102223460D996FF0B1
:102620000100FEF715F977E04FF0000963284F46E7
:10263000C8464B46CB4602D05B2806D038E0E806B9
:1026400001D40120A060012732E06269D4F80CB007
:102650000B98012190475E2807D14FF001094946A8
:102660006269D4F80CB00B989047216939B9002100
:102670000A4603AB43F82120491C0829FADBD8B3EA
:10268000216949B308F1010862690B98012190475B
:102690005D28F4D1B9F1000F09D0002003A951F849
:1026A0002020D24341F82020401C0828F7DB03AB50
:1026B0002069002820794FEA40701ED05B462246F0
:1026C000CDF80080CDE901970D9900286FF0010049
:1026D00020DAAFF300801FE0C11703AA00EBD1613D
:1026E0004B1121F01F0102EB8302411A13680120F4
:1026F000884003431360C7E719E00D99224600287C
:102700006FF00100009702DAAFF3008004E0AFF34E
:10271000008001E0AFF3008000280ADA401C06D1F7
:102720000C9820B14FF0FF300FB0BDE8F08F50464D
:10273000FAE7E90701D10AF1010A064400200C90EA
:1027400054E60000CCCCCC0C2DE9F05F8246154657
:102750008B4600270AF10104B9460078302801D0E1
:102760009DB113E014F8010B0127782803D05828F5
:1027700001D045B10AE00DB1102D07D1002714F8A2
:10278000010B102502E0082500E00A250026B046CE
:102790000EE005FB080005FB06F101271FFA80F893
:1027A00001EB1046B6F5803F00D3B94614F8010B93
:1027B0002946FEF795FD0028EBDABBF1000F05D0A6
:1027C0000FB1641E00E05446CBF80040B9F1000F91
:1027D00006D0FDF761FD02210160C81EBDE8F09F33
:1027E00048EA0640FAE710B50146C268900703D0F0
:1027F000900607D5886A0AE0FDF74EFD01210160C9
:10280000881E10BD8B69486818440B69C01A91F87E
:1028100048301BB191F84910401A10BD1103FCD586
:102820000028FADD401E10BD70B5054640F20226B4
:102830000A4C0FE094F85000C00708D0AC4206D014
:10284000E06836EA000002D12046FEF7B5F8206DB8
:1028500020F00104002CEDD170BD0000DC0E002042
:1028600070B516460C460546FFF7A0F9036893F8C5
:102870000101012806D0FF2C0FD8185D68B1012096
:102880002C7070BDD3F807013246214603F20713BE
:1028900003442846BDE8704018474FF0FF3070BD34
:1028A000002801D000F050B8704710B500F022F9B0
:1028B000BDE81040FFF7F4BF10B500F035F9BDE8F2
:1028C0001040FFF7EDBF000010B5002102A000F09E
:1028D000F7F8012010BD00005349475056464E3AC4
:1028E0002050757265207669727475616C20666E11
:1028F0002063616C6C656400124B694600F5805280
:102900008A421A6001D8114670471960704730B585
:102910000C4D6B46A3F580532C6822449A420FD885
:102920009B1A02F5805003EBD37302EB63039842CA
:1029300000D91846C01D20F007020C60101B2A6049
:1029400030BD00009401002001491820ABBEFEE715
:102950002600020000487047C01000202DE9F04119
:102960001F46044603260168072A01F4006004DBC1
:1029700008B116A505E016A503E008B115A500E00D
:1029800015A521F010002060A069C01EA0610FB144
:10299000401EA0612046FDF7A3FD4FB1D4E90121FF
:1029A00038469047206A401C2062C01C206206E026
:1029B000206AFAE7D4E9012115F8010B9047761E49
:1029C000F8D22046FDF7A2FDBDE8F0814E414E0051
:1029D0006E616E00494E4600696E66002DE9F04753
:1029E000814616468AB0354878440DC88DE80D00FA
:1029F00032487844801C03AC0DC884E80D0041F6D1
:102A00009B300844372190FBF1F290FBF1F5A5F1E2
:102A1000800501FB12041B3C02D56442012000E04A
:102A20000020DFF898A080460027FA44AAF1BE0AE9
:102A30000EE0E0070AD03246684607EB4701012363
:102A40000AEB810100F031FB8DE8070064107F1C68
:102A5000002CEED1194F7F44AE3F19E0E80715D0A6
:102A600007EB04100DF1180A90E80E008AE80E003A
:102A7000C068F04201D1981908903246012306A996
:102A800003A800F012FB03AB83E807006D10641C81
:102A9000002DE3D14FF0010332466946B8F1000F33
:102AA00003A802D000F0ECFA01E000F0FEFAC9E958
:102AB0000001C9F808200AB0BDE8F087A88300002B
:102AC00070B505460C460A2000E06D1C00F054F875
:102AD00035B128780028F8D102E0641C00F04CF8E9
:102AE00014B120780028F8D1BDE870400A2000F029
:102AF00043B8000010B5014602A0FFF7E1FF012036
:102B000010BD000053494752545245443A20526583
:102B10006469726563743A2063616E2774206F7014
:102B2000656E3A200000000010B5012805D0002194
:102B300003A0FFF7C5FF012010BD09A1F8E70000C1
:102B400053494752544D454D3A204F7574206F6696
:102B50002068656170206D656D6F727900000000FE
:102B60003A2048656170206D656D6F727920636FE2
:102B7000727275707465640008B569468DF800005E
:102B80000320ABBE08BD70475FEA400C08BF91F060
:102B9000000F4FEA8C234FEAC12243EA51514FEA1A
:102BA0001C5018BF00F5F0404FEA300018BF41F04C
:102BB00000415FEA6C5C00F02980BCF1FF3F08BF78
:102BC00040F080407047130C06BF12044FF0100C09
:102BD0004FF0000C130E04BF12020CF1080C130F7F
:102BE00004BF12010CF1040C930F04BF92000CF10E
:102BF000020CD30F04BF52000CF1010C11464FF030
:102C00000002A0F11F00A0EB0C00704711F0004F74
:102C100008BF704731F000413FF4D5AF0B0C06BF41
:102C200009044FF0100C4FF0000C0B0E04BF09020A
:102C30000CF1080C0B0F04BF09010CF1040C8B0FF5
:102C400004BF89000CF1020CCB0F04BF49000CF14A
:102C5000010CCCF12003A0EB0C0022FA03F302FAE2
:102C60000CF241EA030100F10100704720F07F4CB3
:102C700080EA030023F07F47ACEB070303F57C53A6
:102C800000F0004003F1FF032DE980494FEA154BA6
:102C900009B44FEA144325EA0B4E24EA03480FF225
:102CA000042606EB132749083E785FEA320203FB4D
:102CB0000667C7F5000707FB06F64FEA54374FEAE9
:102CC000D64606F1020607FB066CCCF1005C4FEA23
:102CD0001C472CEA074C07FB06F40CFB06F504EB3B
:102CE00015464FEA961634BF00204FF000404FEAD9
:102CF000D13706FB07FC4FEA1C4C0CFB0BF7D21B31
:102D000003FB0CF761EB07010CFB0EF7B0EB074080
:102D100072EB17420CFB08F734BFA2EB0742B2EB91
:102D2000074261EB17414FEA0C444FEA910706FB5B
:102D300007FC4FEA1C4C0CFB0BF7B0EBC74072EBE7
:102D4000573203FB0CF734BFA2EBC742B2EBC742CA
:102D500061EB57310CFB0EF7B0EBC70072EB57720B
:102D60000CFB08F734BFA2EBC702B2EBC70261EB62
:102D70005771039F4FEA816141EA921104EBCC0441
:102D80004FEAD1374FEA826206FB07FC42EA901213
:102D90004FEA80604FEA1C4C0CFB0BF7D21B03FB85
:102DA0000CF761EB07010CFB0EF7B0EB074072EB81
:102DB00017420CFB08F734BFA2EB0742B2EB074205
:102DC00061EB17414FEA8C554FEA910704EB9C24C5
:102DD00006FB07FC4FEA1C4C0CFB0BF7B0EBC740A3
:102DE00072EB573203FB0CF734BFA2EBC742B2EBD6
:102DF000C74261EB57310CFB0EF7B0EBC70072EB2B
:102E000057720CFB08F734BFA2EBC702B2EBC70244
:102E100061EB577115EB4C254FEA816141EA921144
:102E20004FEA82624FEAD13742EA901206FB07FC72
:102E300044F100044FEA80604FEA1C4C0CFB0BF796
:102E4000D21B03FB0CF761EB07010CFB0EF7B0EB99
:102E5000074072EB17420CFB08F734BFA2EB0742A6
:102E6000B2EB074261EB174115EB1C154FEA8131BC
:102E700041EA92414FEA823242EA90424FEA803080
:102E80004FEA0C7644F1000448EA03434EEA0B484B
:102E90004FF0000EB2EB080C71EB030724BF624643
:102EA00039464EEB0E0E4FF0000B001852414941CF
:102EB0004BEB0B0BB2EB080C71EB03077BF1000B38
:102EC00024BF624639464EEB0E0E4FF0000B001841
:102ED000524149414BEB0B0BB2EB080C71EB030772
:102EE0007BF1000B24BF624639464EEB0E0E51EAD1
:102EF000020718BF46F0010616EB0E7655F10002E8
:102F000054F1000103D5BDE88901BDE80088BDE8A2
:102F10008901BDE80048B619524141EB0101A3F116
:102F20000103704780807F7E7D7C7B7A797877761D
:102F300076757473727171706F6E6E6D6C6C6B6A96
:102F40006A69686867666665646463636261616034
:102F5000605F5F5E5E5D5D5C5C5B5B5A5A595958B1
:102F6000585757565655555554545353525252511B
:102F7000515050504F4F4F4E4E4D4D4D4C4C4C4B71
:102F80004B4B4A4A4A4949494848484747474746B8
:102F900046464545454444444443434343424242F4
:102FA00042414141002B9C4630D477002BD01CB5C8
:102FB0004FEA370703B44FF010004FF01001BAF199
:102FC000000F06D0BCF1000FDCBF40F0080040F05D
:102FD00008014FF000000FBCBDE810400BF1010BE1
:102FE000BBF1010F08BF5FEA170722BF12F1010210
:102FF00011F101014FF0004143F1000300F00040E6
:1030000043EA00007047F9D35708D0E746EA06467E
:1030100013F1400F4FEA16461FDD13F1200FDFBFFB
:1030200016430A46002120335B42BED0C3F120077D
:1030300046EA064602FA07F74FEA164646EA070648
:10304000C3F1200722FA03F201FA07F721FA03F18C
:103050004FF0000342EA0702A7E746EA020646EA03
:1030600006464FEA164646EA0106BCBF46EA064651
:10307000360C4FF000034FF000024FF0000194E7D0
:103080002DE9804C9A46934670B491E8380007C801
:1030900031EA400C48BF34EA430C03D5FFF7E6FDA4
:1030A000FFF780FFF0BCBDE8008C2DE9804C9A460C
:1030B000934670B491E8380007C810F0804F08BFFD
:1030C00013F0804F03D100F005F8FFF76BFFF0BC61
:1030D000BDE8008C20F07F4780EA030023F07F4C9E
:1030E00007EB0C03A3F57C5300F00040A3F1FE03B3
:1030F00092F0000F00F0B38095F0000F00F07780A1
:103100002DE901494FEA11404FEA144621EA0048EF
:1031100000FB06FC24EA064708FB06F607FB08F856
:1031200000FB07F718EB06484CEB164C4FEA124B26
:1031300018EB07484FEA15464CEB174022EA0B4EB6
:103140000BFB06FC25EA06470EFB06F607FB0EFE08
:103150000BFB07F71EEB064E4CEB164C4FF0000630
:103160001EEB074E4CEB174B18EB0B0840F1000021
:1031700018EB0E0B58EB000840F100008F1A4FF0CF
:1031800000013CBFC943661B14BFB5EB040C002112
:103190003CBFC943F61B4FEA17444EEA8E0E27EA9E
:1031A00004454FEA1C4704FB07622CEA074C05FB69
:1031B00007F70CFB05F604FB0CFC16EB074642EB8D
:1031C000174216EB0C4642EB1C421BEB060658EB73
:1031D0000202414146EA9E0601D5BDE80189B619C1
:1031E000524141EB0101A3F10103BDE801894FEA1E
:1031F00014454FEA114724EA054621EA074C05FB2E
:1032000007F406FB07F70CFB06F105FB0CFC11EBC2
:10321000074144EB17444FEA124711EB0C4144EBD2
:103220001C4422EA074C05FB07F206FB07F70CFBE0
:1032300006F605FB0CFC16EB074642EB174216EBB5
:103240000C4642EB1C456A1854F1000148BF704718
:10325000B619524141EB0101A3F10103704795F00A
:10326000000F37D04FEA11424FEA144721EA0246D5
:1032700024EA074C02FB07F106FB07F70CFB06F4F8
:1032800002FB0CFC14EB074441EB17414FEA1547D6
:1032900014EB0C4441EB1C4125EA074C02FB07F5FB
:1032A00006FB07F70CFB06F602FB0CFC16EB0746C9
:1032B00045EB174516EB0C4645EB1C42121951F134
:1032C000000148BF7047B619524141EB0101A3F11B
:1032D000010370474FEA14454FEA114724EA0546B7
:1032E00021EA074C05FB07F106FB07F70CFB06F28A
:1032F0004FF0000605FB0CFC12EB074241EB1741B7
:1033000012EB0C4251EB1C4148BF7047921841EB45
:103310000101A3F10103704710B505F0C7FFBDE837
:10332000104005F0A5BE0021C16070470021014892
:1033300005F066BA0064004010B590F82110002432
:10334000022903D004218163012439E001680A685D
:1033500022F00E020A6001680A6822F001020A6087
:10336000184A0168914208BF01211DD0164A9142B6
:1033700008BF102118D0154A914208BF4FF4807140
:1033800012D0134A914208BF4FF480510CD0114A19
:10339000914208BF4FF4803106D00F4A91420CBFD2
:1033A0004FF480114FF080710C4A5160012180F878
:1033B0002110002180F82010416B002918BF884798
:1033C000204610BD080002401C00024030000240B0
:1033D00044000240580002406C00024000000240DD
:1033E00001480068704700002C0100200248016875
:1033F000491C0160704700002C010020074810B5EF
:10340000016841F010010160032000F06FF80F2007
:1034100000F006F800F068F8002010BD002002401F
:1034200038B52948C16941F00401C161C16901F0A1
:1034300004010091016941F004010161016921F079
:103440000401016101F0F8FF214C2048224920606D
:103450004FF6FF70E0601F480068B0FBF1F0401EBF
:10346000606000202061A0606061A061204601F0E2
:1034700089F90021204601F0C1F90421204601F01C
:10348000BDF92068426A15490A60096801F57A7138
:103490008163144812490068C0F8B8104FF0E02169
:1034A0004FF08040C1F800012068C16841F001017F
:1034B000C1602068C16841F00401C160204601F08C
:1034C0007DF9002038BD00000010024000080040D7
:1034D000680C00203401002040420F001801002039
:1034E000C1A3000808ED00E070470000074900F0A4
:1034F00007000A684FF6FF031A4042EA002040F036
:10350000FD7040F080600860704700000CED00E046
:10351000014901200862704700000E4210B586B0D4
:1035200001460FF2D80C9CE80D108DE80D1037A065
:10353000374C00680490002001292CD0022951D07A
:1035400010291CBF06B010BD6168226812F0807F90
:1035500004BF06B010BDC1F3834211F4803F1DF8D3
:10356000020004BF2B49484308D0616804AAC1F394
:103570004041515C284AB2FBF1F14843616811F4C3
:10358000800F1CBF06B010BD4000244906B0A1FB4F
:103590000010400810BD216A01F44072B2F5807F2E
:1035A00006D111F0020F1EBF4FF4004006B010BD4F
:1035B000B2F5007F07D1626A12F0020F1EBF49F612
:1035C000404006B010BD4FF4407232EA01011CBF0A
:1035D00006B010BD216811F4003F18BF4FF224401F
:1035E00006B010BD00F0B2F9616806B0C1F38131D8
:1035F000491C4900B0FBF1F010BD000002030405B6
:10360000060708090A0B0C0D0E0F1010010200002E
:103610000010024000093D0000127A00ABAAAAAADD
:103620002DE9F84304460078DFF8148110F0010F0B
:103630006AD0D8F81C00002710F0805F0BD1D8F8B2
:103640001C0040F08050C8F81C00D8F81C0001276E
:1036500000F0805000903B4E306810F4807F14D111
:10366000306840F480703060FFF7BAFE054630687D
:1036700010F4807F09D100BFFFF7B2FE401B642821
:103680002BD8306810F4807FF6D0D8F8200010F4E2
:1036900040702AD0A18801F44071814225D0D8F829
:1036A0002000012220F440712748026000220260BD
:1036B000C8F8201011F0010F17D0FFF791FE054652
:1036C000D8F8200010F0020F08BF41F288360CD164
:1036D000FFF786FE401BB04202D90320BDE8F88305
:1036E000D8F8200010F0020FF2D0D8F8200061685E
:1036F00020F440700843C8F820002FB1D8F81C000F
:1037000020F08050C8F81C00207810F0020F07D07D
:10371000D8F80400A16820F440400843C8F8040029
:10372000207810F0100F07D0D8F80400E16820F4DA
:1037300080000843C8F804000020BDE8F8830000BA
:103740000010024000700040400442422DE9F04366
:103750006E4E044685B030680F4600F00700B84250
:1037600009D2306820F0070038433060306800F03C
:103770000700B8427AD12078DFF8948110F0020F68
:1037800007D0D8F80400A16820F0F0000843C8F87A
:103790000400207810F0010F59D06068012826D06D
:1037A000D8F80010022828D011F0020F5ED000BF18
:1037B000D8F8041021F003010843C8F80400FFF70B
:1037C0000FFE0546606841F28839012819D00228A9
:1037D000D8F8040000F00C0026D020B3FFF700FE5C
:1037E000401B48452ED905B00320BDE8F083D8F82A
:1037F000001011F4003FDBD138E011F0007FD7D189
:1038000034E0D8F8040000F00C0004281FD000BFFA
:10381000FFF7E6FD401B4845E5D8D8F8040000F066
:103820000C000428F4D112E0082810D0FFF7D8FDCE
:10383000401B4845D7D8D8F8040000F00C000828F1
:10384000F4D104E0D8F8040010F00C0FC6D13068B1
:1038500000F00700B8420DD9306820F00700384367
:103860003060306800F00700B84203D005B0012096
:10387000BDE8F083207810F0040F07D0D8F80400DA
:10388000E16820F4E0600843C8F80400207810F0F4
:10389000080F08D0D8F80400216920F4605040EAED
:1038A000C100C8F804001B4B0FCB8DE80F001A486D
:1038B00000680490D8F80410184801F00C02042A9B
:1038C00014D0082A12D1C1F3834311F4803F1DF8AC
:1038D000032004BF1248504308D0D8F8041004ABAA
:1038E000C1F34041595CB0FBF1F05043D8F80410EB
:1038F0000C4AC1F30311515CC8400B4908600F200A
:10390000FFF78EFD05B00020BDE8F08300200240E7
:1039100000100240C0390008D039000800127A00B7
:1039200000093D00F8AB00083401002004480549B7
:1039300000684968044AC1F30221515CC8407047DD
:10394000340100200010024008AC0008044805497A
:1039500000684968044AC1F3C221515CC8407047FD
:10396000340100200010024008AC000814A386B007
:103970000FCB8DE80F0016A0164B00680490596815
:10398000154801F00C02042A04BF06B07047082A4B
:103990001CBF06B07047C1F3834C11F4803F1DF883
:1039A0000C2001BF0D48504306B07047596804AB66
:1039B000C1F34041595C06B0B0FBF1F05043704791
:1039C00002030405060708090A0B0C0D0E0F101060
:1039D000010200000010024000127A0000093D00C0
:1039E0002DE9F84F04460078E04D10F0010F59D052
:1039F000686800F00C00042808D0686800F00C002B
:103A000008280CD1686810F4803F08D0286810F4AA
:103A1000003F47D06068002800F0A58142E0606860
:103A2000B0F5803F04BF286840F480300AD010B160
:103A3000B0F5A02F11D0286820F4803028602868C5
:103A400020F4802028606068D0B1FFF7C9FC0646EA
:103A5000286810F4003F08D024E0286840F4802053
:103A60002860286840F48030ECE7FFF7B9FC801B41
:103A7000642800F23681286810F4003FF5D011E088
:103A8000FFF7AEFC0646286810F4003F0AD000BFDE
:103A9000FFF7A6FC801B642800F22381286810F43D
:103AA000003FF5D12078B24E10F0020F4FF0010B1D
:103AB0004FF0000845D0686810F00C0F14D068680B
:103AC00000F00C00082804BF686810F4803F0BD099
:103AD000206918B3C6F800B0FFF782FC07462868D3
:103AE00010F0020F09D011E0286810F0020F1CBF7F
:103AF000206901280AD000F036B9FFF771FCC01B1D
:103B000002287DD8286810F0020FF6D02868616975
:103B100020F0F80040EAC100286012E0C6F80080FA
:103B2000FFF75EFC0746286810F0020F09D000BFBF
:103B3000FFF756FCC01B022862D8286810F0020F5D
:103B4000F6D1207810F0080F35D08A48A169F9B174
:103B5000C0F800B0FFF744FC0746686A10F0020F97
:103B600009D100BFFFF73CFCC01B022848D8686A97
:103B700010F0020FF6D080484FF4FA510068B0FB05
:103B8000F1F0009000BF0098411E0091FAD212E0BF
:103B9000C0F80080FFF724FC0746686A10F0020FA7
:103BA00009D000BFFFF71CFCC01B022828D8686A98
:103BB00010F0020FF6D1207810F0040F79D0E869E8
:103BC0004FF0000A10F0805F09D1E86940F08050A2
:103BD000E861E8694FF0010A00F080500090DFF8DA
:103BE0009C91D9F8000010F4807F19D1D9F8000019
:103BF00040F48070C9F80000FFF7F2FB074600E0D0
:103C00006FE0D9F8000010F4807F09D1FFF7E8FBDE
:103C1000C01B642865D8D9F8000010F4807FF5D067
:103C2000E068012804BF286A40F0010009D008B10B
:103C3000052813D0286A20F001002862286A20F0A5
:103C400004002862E06841F28837D0B1FFF7C8FB72
:103C50008146286A10F0020F08D023E0286A40F05D
:103C600004002862286A40F00100EAE7FFF7B8FB89
:103C7000A0EB0900B84234D8286A10F0020FF5D042
:103C800010E0FFF7ADFB8146286A10F0020F09D063
:103C9000FFF7A6FBA0EB0900B84222D8286A10F073
:103CA000020FF5D1BAF1000F03D0E86920F080507F
:103CB000E861E069F0B3696801F00C01082952D0AD
:103CC0000228C6F860800FD0FFF78AFB04462868F8
:103CD00010F0007F44D000BFFFF782FB001B0228DA
:103CE0003AD90320BDE8F88FFFF77AFB074628682A
:103CF00010F0007F09D000BFFFF772FBC01B022845
:103D0000EFD8286810F0007FF6D1206AB0F5803F28
:103D100005D16868A16820F4003008436860D4E9E0
:103D200008010843696821F4741108436860C6F803
:103D300060B000E014E0FFF753FB0446286810F081
:103D4000007F0DD1FFF74CFB001B0228C9D8286863
:103D500010F0007FF6D003E0286810F0007FBBD1A0
:103D60000020BDE8F88F0120BDE8F88F0010024068
:103D700000004242800442423401002000700040B2
:103D8000F8B505004FF0000016460C46009018BF2D
:103D9000002C05D000226946284600F019F808B129
:103DA0000120F8BD287B2070E87BE070697B6170A2
:103DB000A97BA17056B100F0E7FEE070607800F0DA
:103DC000E3FE6070A07800F0DFFEA0700020F8BD78
:103DD000002812BF0029012070472DE9F047044652
:103DE00000680D461746416811F0040F5CD18169E7
:103DF0008AB2C1698BB2816989B28A421ABFC0692D
:103E000061F31F4043EA02404FF46162B0FBF2F3FA
:103E100002FB130340F6890C03FB0CF35B0C6B7085
:103E2000B0FBF2F1B0FBF2F302FB1302764BA3FB03
:103E300002C35B09A3EB031302EB8302AA701829E8
:103E400038BF2970C0F0D080704AA2FB0132160939
:103E5000A6EB860201EBC20129702268116A526A40
:103E600092B242EA0141B1F1FF3F18BF814294BFD3
:103E70004FF0FF38A1EB00086549714300EBC11911
:103E80004946204600F0DAFE40B9B8F1FF3F06D0BF
:103E900008EB0901204600F08FFE40B104E04146E6
:103EA000204600F089FE10B10120BDE8F087E17BDB
:103EB000637B94F80E8057484FF0000C4FF4C872A3
:103EC000002E52D9012B18BF032B13D0052B18BF7E
:103ED000072B0FD0082B1CBF0A2B0C2B0AD0042B4E
:103EE00018BF062B0FD0092B18BF0B2B0BD0022BA2
:103EF00010D036E0B8F11F0F0FD30C2B06D10123E1
:103F00009846491C2DE0B8F11E0F06D34FF001086A
:103F10005B1C26E0B8F11C0F02D208F1010820E07A
:103F200019D11FFA81F818F0030F17D1A0FB08A9C7
:103F30004FEA59196FF0180A09FB0AF918EB8909B9
:103F400006D1B8FBF2F902FB1988B8F1000F05D1D0
:103F50004FF01D0805E0B8F11D0F02D103234FF00B
:103F600001080CF1010CB445ACD3E1736373DBB20F
:103F700084F80E8008F0FF0C032BC3EBC30808EB9A
:103F8000031340F6396803FB08F34FEAD333224E9C
:103F900001F5FA6163440B4413D2491EA0FB01C032
:103FA00003EB9103B1FBF2F1A3EB5010084432464E
:103FB0000021001DE0FB06214908A1EBC1010844D6
:103FC00011E0A0FB01C003EB9103B1FBF2F1A3EB05
:103FD00050100844104A0021801CE0FB06214908CB
:103FE000A1EBC101084420735FB1287800F0CCFD3B
:103FF0002870687800F0C8FD6870A87800F0C4FDEB
:10400000A8700020BDE8F08789888888ABAAAAAA92
:104010005DFDFFFF1F85EB5149922449002804BF35
:10402000012070472DE9F0410446407C002618B974
:104030002674204600F08AF80220607420684168E7
:1040400021F008014160FFF7CBF905462068406880
:104050004FF0040710F0080F0FD100BFFFF7C0F9B1
:10406000401BB0F57A7F03D967740120BDE8F08169
:104070002068406810F0080FF0D0FFF7B1F905464E
:104080002068406810F0200F0BD100BFFFF7A8F99F
:10409000401BB0F57A7FE7D82068406810F0200F09
:1040A000F4D02068416841F0100141602068416807
:1040B00021F007014160A06820B12248016821F089
:1040C0000101016020480168A26821F46071114378
:1040D00001606068B0F1FF3F19D021688A6822F062
:1040E0000F0242EA10428A602168CA6860F30F0238
:1040F000CA602068416821F010014160FFF770F943
:1041000005462068406810F0200F08D012E001201A
:10411000FFF704FA002818BF401EDED1A4E7FFF71E
:104120005FF9401BB0F57A7F9ED82068406810F098
:10413000200FF4D0E67301206073A0736074002038
:10414000BDE8F081306C00402C6C004070470000EE
:10415000002812BF0029012070472DE9F0470446CE
:10416000007C012804BF0220BDE8F08701262674E8
:1041700002206074C878002A46D0020902EB82024D
:1041800000F00F0000EB4200E0734878020902EBF8
:10419000820200F00F0000EB420060738878020991
:1041A00002EB820200F00F0000EB4200A073627B82
:1041B0000025032AC2EBC20909EB021240F6396955
:1041C000E07BA37B02FB09F24FEAD2323B4FDFF8E0
:1041D000F0C000F5FA601A444FF4C878024418D2CF
:1041E000401E02EB9003A7FB0072B0FBF8F0A3EBBC
:1041F0005212104463460022001DE0FB0C325208AC
:10420000A2EBC202104416E0E0734878607388782D
:10421000CCE702EB9003A7FB0072B0FBF8F0A3EB36
:1042200052121044264B0022801CE0FB0C32520834
:10423000A2EBC20210442073087020688169C26931
:1042400089B293B2826992B291421ABFC06962F395
:104250001F4043EA01404FF46161B0FBF1F11829BE
:1042600027D9184AA2FB0121174A0909514300EB3B
:10427000C1173946204600F0E1FC4FF0040890B920
:104280002168086A496A89B241EA0040B0F1FF3FFB
:1042900018BFB8420DD200F5803101F5A341204688
:1042A00000F08AFC28B184F8118025740120BDE853
:1042B000F087667425740020BDE8F0871F85EB51F8
:1042C00049922449ABAAAAAA5DFDFFFF002812BFAC
:1042D0000029012070472DE9F0410446007C0128A7
:1042E00004BF0220BDE8F08101272774022060741A
:1042F00008785AB3020902EB820200F00F0000EBCB
:104300004200C0B24FF4616200FB02F34878020938
:1043100002EB820200F00F0000EB4200C0B2C0EBE3
:10432000001003EB80028878010901EB810100F0A5
:104330000F0000EB4100C0B215182946204600F0DE
:104340007DFC00264FF0040818BB0AE04FF46162C0
:1043500050434A788978C2EB021200EB820045187C
:10436000EBE72068416821F0050141602168086A97
:10437000496A89B241EA0040B0F1FF3F18BFA84244
:104380000DD200F5803101F5A341204600F014FC68
:1043900028B184F8118026740120BDE8F08167748B
:1043A00026740020BDE8F0817047000038B504464F
:1043B00000684268816811F0400F0BD111F0010FC5
:1043C00018BF12F0400F05D0216C01B02046BDE8A7
:1043D0003040084711F0020F18BF12F0800F05D0CF
:1043E000616C01B02046BDE83040084711F0600F15
:1043F00014BF12F0200F38BD11F0400F0AD094F80E
:104400005130032B38D0636D43F004036365C368F8
:104410008368009311F0200F09D0616D41F0010114
:10442000616581680091016821F040010160606D63
:10443000002808BF38BD2068416821F0E0014160D4
:10444000012084F8510012F0030F19D02068416850
:1044500021F0030141600C4DE06C18B14563E06C44
:10446000FEF76AFFA06C002808BF38BD4563A06C4A
:10447000BDE83840FEF760BFC1688068009038BD75
:104480002046FFF791FF38BDB54F0008002804BF54
:104490000120704710B5044690F85100002804BF71
:1044A000204600F039F8022084F8510020680168A5
:1044B00021F040010160D4E901010843D4E903126D
:1044C0001143084361690843218B01F400710843DB
:1044D000E1690843216A0843A16A0843216808602A
:1044E000A069042101EA1040616A0843216848601C
:1044F0002168E06A08612068C16921F40061C16136
:104500000449002008706065012084F851000020F3
:1045100010BD0000300100207047000070B48468B6
:10452000042513464FF0000C002C04BF4268B2F57E
:10453000827F12D090F85020012A02BF022070BC66
:104540007047012280F8502090F851600022012E1F
:1045500018BF4FF0020C06D040E080F8515070BCFC
:104560000A4600F047B8002914BF002B4FF0010C99
:1045700034D080F85150426581638387C3870263DA
:104580008286C2864264C168002914BF1649174951
:104590000164B4F5004F04D101680B6823F4804333
:1045A0000B60816AB1F5005F0AD101680B684DF6B6
:1045B000FF7423400B6001680B6843F400530B60E9
:1045C00001684B6843F060034B6001680B6813F0AF
:1045D000400F03D10B6843F040030B6080F850207C
:1045E00070BC604670470000C94F00083950000891
:1045F0007047000070B490F850404FF0000C012C50
:1046000002BF022070BC7047012480F8504090F82F
:10461000514000254668012C08D0B6F5827F03BFC3
:104620008668002E042C4FF0020C3BD100291ABFE3
:10463000002A002B4FF0010C34D090F85140012C8F
:1046400004BF052480F85140456501638386C38615
:1046500082638387C387C168002914BF1449154941
:10466000016414BF144915494164816AB1F5005FC2
:104670000AD101680A684DF6FF731A400A600168A2
:104680000A6842F400520A6001684A6842F0E00297
:104690004A6001680A6812F0400F03D10A6842F0CC
:1046A00040020A6080F8505070BC604670470000BD
:1046B000C14C0008294D0008994D0008E74D00083D
:1046C00010B490F850304FF0000C012B02BF0220C4
:1046D00010BC7047012380F850300023002914BF1C
:1046E000002A4FF0010C42D090F85140012C18BF25
:1046F0004FF0020C3BD1032480F851404365016325
:104700008286C28683638387C3870364C168002966
:1047100014BF1949194941648168B1F5004F04D1AA
:1047200001680A6842F480420A60816AB1F5005F5C
:104730000AD101680A684DF6FF7422400A600168D8
:104740000A6842F400520A608168002901684A68D8
:104750000CBF42F0800242F0A0024A6001680A6881
:1047600012F0400F03D10A6842F040020A6080F85C
:10477000503010BC604670479D50000859510008E9
:1047800070477047002804BF0120704710B50446E9
:1047900090F83D0028B9002084F83C00204600F045
:1047A0000CF8022084F83D00211D206800F0A0FED6
:1047B000012084F83D00002010BD7047022180F8E0
:1047C0003D1001680A6842F001020A60012180F888
:1047D0003D100020704790F83C20012A04BF0220C1
:1047E00070470122022380F83D300368596180F848
:1047F0003D20002180F83C100846704702680123E4
:1048000003FA01F1136A8B431362136A19431162AD
:104810000168A1F18042B2F5963203D14A6C42F4AC
:1048200000424A640068016841F001010160002013
:104830007047006881B0016811F0010F04BF016882
:1048400011F0020F03D04068009001B0704701687A
:1048500011F0040F04BF016811F0080FF3D101B08B
:104860007047000070B5016804460868CA684B6963
:1048700010F00F0F4FF0200545D003F0010C02F4AB
:1048800090765CEA060C00F0FD8010F0010F18BF76
:1048900012F4807F05D0D4F83CC04CF0010CC4F871
:1048A0003CC010F0040F18BF13F0010F05D0D4F86E
:1048B0003CC04CF0020CC4F83CC010F0020F18BF12
:1048C00013F0010F05D0D4F83CC04CF0040CC4F830
:1048D0003CC010F0080F18BF13F0010F03D0E36BBA
:1048E00043F00803E363E36B002B08BF70BD10F0D7
:1048F000200F18BF12F0200F73D094F83A202046F2
:10490000222A4BD087E010F0200F18BF12F0200FA2
:1049100000F0B88094F83A202046222A18BF70BDD3
:104920008268B2F5805F23D0026982B3496801F0E2
:104930007F02816A4B1C83620A70C18D491E090483
:10494000090CC18518BF70BD0168CA6822F0200239
:10495000CA600168CA6822F48072CA6001684A6944
:1049600022F001024A6180F83A5000F003F970BD6C
:104970000369826A4968002B14BFC9B2C1F30801F8
:104980001180816A14BF491C891C8162D5E7FFE749
:104990004A68816A4B1C83620A70CEE78268B2F56E
:1049A000805F0FD00269EAB1496801F07F02816A35
:1049B0004B1C83620A70C18D491E0904090CC18514
:1049C00029D115E00369826A4968002B14BFC9B276
:1049D000C1F308011180816A14BF491C891C8162DE
:1049E000E9E718E04A68816A4B1C83620A70E2E7D3
:1049F0000168CA6822F02002CA600168CA6822F40D
:104A00008072CA6001684A6922F001024A6180F836
:104A10003A5000F0AFF820684169E26BC1F38011B1
:104A200002F00802114326D0C16821F49071C160E0
:104A30002068416921F00101416184F83A50206801
:104A4000416911F0400F12D0416921F040014161EC
:104A5000606B60B12D494163606BFEF76DFC00280F
:104A600008BF70BD606B416BBDE8704008472046D1
:104A7000FFF7DFFE70BD2046FFF7DBFE0020E0639E
:104A800070BD00BF10F0800F18BF12F0800F2CD047
:104A900094F83900212818BF70BDA068B0F5805F78
:104AA000206A16D0411C2162216800784860E08CA1
:104AB000401E0004000CE08418BF70BD2068C1686F
:104AC00021F08001C1602068C16841F04001C160EF
:104AD00070BD0088C0F30800486020690028206A83
:104AE00014BF401C801C2062E1E710F0400F14BF8F
:104AF00012F0400F70BD2046CA6822F04002CA6022
:104B000084F8395000F037F870BD0000695500088E
:104B1000002804BF0120704770B5044690F83900A2
:104B2000002520B984F83850204600F022F82420CF
:104B300084F839002068C16821F40051C160204622
:104B400000F01AFD2068016921F49041016120689C
:104B5000416921F02A0141612068C16841F4005196
:104B6000C160E563202084F8390084F83A00002011
:104B700070BD704770470068016811F0400F1CBF9E
:104B80006FF0400101607047002109280FD94242AF
:104B9000CD235A43D312A3EBE2725242002A06DD20
:104BA00011464A4202EB820200EB4200C0B2090702
:104BB00040EA1160704700002DE9F0410F460446BD
:104BC0000026FEF70DFC05462068406810F0200F17
:104BD0000BD100BFFEF704FC401BB0F57A7F23D851
:104BE0002068406810F0200FF4D02068416841F040
:104BF000100141602168380C08622168B8B248622F
:104C00002068416821F010014160FEF7E9FB05468C
:104C10002068406810F0200F0DD100BFFEF7E0FBC8
:104C2000401BB0F57A7F01D9012604E02068406876
:104C300010F0200FF2D03046BDE8F0812DE9F041B0
:104C40000F4604460026FEF7CBFB05462068406869
:104C500010F0200F0BD100BFFEF7C2FB401BB0F5D8
:104C60007A7F23D82068406810F0200FF4D02068A5
:104C7000416841F0100141602168380C8861216869
:104C8000B8B2C8612068416821F010014160FEF7A8
:104C9000A7FB05462068406810F0200F0DD100BF2B
:104CA000FEF79EFB401BB0F57A7F01D9012604E098
:104CB0002068406810F0200FF2D03046BDE8F08147
:104CC0000168C968826B1180816B891C8163C18F07
:104CD000491EC187C18F002918BF7047816AB1F58D
:104CE000005F02BF06490164704701684A6822F00C
:104CF00040024A60C18E002918BF704700F09AB880
:104D0000054D000882B00021ADF800100168CA68A6
:104D1000ADF80020BDF800204A6822F040024A6049
:104D200002B000F087B8000001680A7B816B4B1C61
:104D300083630A70C18F491EC187C18F002918BFC4
:104D40007047816AB1F5005F02BF0749016470478F
:104D500001684A6822F060024A60C18E002918BFCB
:104D6000704700F067B800006D4D000882B0002168
:104D70008DF8001001680A7B8DF800209DF8002056
:104D80004A6822F060024A60C18E00291CBF02B04E
:104D9000704702B000F04EB8016B02680988D1601C
:104DA000016B891C0163C18E491EC186C18E002919
:104DB00018BF7047816AB1F5005F016809D04A6881
:104DC00022F080024A60C18F002918BF704700F0AE
:104DD00031B80A6842F480520A600068416821F0E4
:104DE000800141607047016B4A1C026302680978C8
:104DF0001173C18E491EC186C18E002918BF70472C
:104E0000816AB1F5005F016809D04A6822F080022A
:104E10004A60C18F002918BF704700F00BB80A68BC
:104E200042F480520A600068416821F080014160CC
:104E30007047000038B50446374845F6C051006851
:104E4000B0FBF1F0642148430090FEF7C9FA024636
:104E50002068416821F0200141600098411E0091C6
:104E600004D2606D40F02000606504E02068806836
:104E700010F0020FF1D0009264230022802120461E
:104E800000F0C6F938B1606D40F020016165606DD9
:104E900040F020006065A06818B92068C16880688B
:104EA0000090206880684FF0010510F0100F1ED0B0
:104EB000204600F087F8012804D021684FF6EF70F3
:104EC000886038BD84F85150606D40F00200606524
:104ED000206801684DF6FF7211400160206801688A
:104EE00041F4005101602046FFF75EFA38BD606D65
:104EF00028B184F851502046FFF756FA38BD94F88F
:104F0000510084F851500428204602D0FFF739FCA4
:104F100038BDFFF76DFB38BD3401002038B50446BD
:104F20000068416821F0600141606068B0F5827FEF
:104F30000BD1A068B0F5004F18BFB0F5806F04D159
:104F40002068016821F040010160A06818B920685C
:104F5000C16880680090012084F851002068806852
:104F600010F0100F1CD0204600F02CF8012804D0BF
:104F700021684FF6EF70886038BD606D40F0020028
:104F80006065206801684DF6FF721140016020687D
:104F9000016841F4005101602046FFF705FA38BD71
:104FA000606D0028204602D0FFF7FEF938BDFFF7FC
:104FB0001FFB38BD10B5406A0021C187C186FFF7CD
:104FC000F3F910BD012070470168C968826B118038
:104FD000816B891C8163C18F491EC187C18F0129E3
:104FE00004BF816AB1F5005F04D101680A6842F428
:104FF00080520A60C18F002918BF7047816AB1F5DD
:10500000005F02BF024901647047FFF787BF0000DD
:105010001550000882B00021ADF800100168CA6880
:10502000ADF80020BDF800204A6822F060024A6016
:1050300002B0FFF773BF000001680A7B816B4B1C55
:1050400083630A70C18F491EC187C18F012904BFC4
:10505000816AB1F5005F04D101680A6842F48052A8
:105060000A60C18F002918BF7047816AB1F5005FDF
:1050700002BF024901647047FFF750BF815000082A
:1050800082B000218DF800100168097B8DF80010B6
:105090009DF8001002B0FFF741BF0000016B0268ED
:1050A0000988D160016B891C0163C18E491EC186CC
:1050B000C18E002918BF7047816AB1F5005F04D125
:1050C00001680A6842F480520A6038B504462148F3
:1050D00045F6C0510068B0FBF1F0642148430090F0
:1050E000FEF77EF98446206800994A1E009204D299
:1050F000616D41F02001616503E0816811F0020FEC
:10510000F2D0416821F0A001416064230022802197
:105110002046CDF800C000F07BF838B1606D40F05B
:1051200020016165606D40F020006065A06818B9DD
:105130002068C16880680090012084F85100606D8B
:105140000028204602D0FFF72FF938BDFFF718FBE3
:1051500038BD000034010020016B4A1C0263026864
:1051600009781173C18E491EC186C18E002918BFEE
:105170007047816AB1F5005F04D101680A6842F4A2
:1051800080520A6038B50446204845F6C051006890
:10519000B0FBF1F0642148430090FEF721F984460A
:1051A000206800994A1E009204D2616D41F02001EE
:1051B000616503E0816811F0020FF2D0416821F0CF
:1051C000A00141606423002280212046CDF800C068
:1051D00000F01EF838B1606D40F020016165606D2F
:1051E00040F020006065A06818B92068C168806838
:1051F0000090012084F85100606D0028204602D004
:10520000FFF7D2F838BDFFF7BBFA38BD34010020F4
:105210002DE9F04104460068DDF818801D468068DD
:1052200016460F4631EA00000CBF01200020B042B4
:1052300040D000BFB5F1FF3F33D02DB1FEF7D0F81D
:10524000A0EB0800A8422CD32068416821F0E001BF
:1052500041606068B0F5827F0BD1A068B0F5004F67
:1052600018BFB0F5806F04D12068016821F04001BB
:105270000160A06AB0F5005F0AD1206801684DF6B0
:10528000FF72114001602068016841F40051016023
:10529000012084F85100002084F850000320BDE86C
:1052A000F0812068806837EA00000CBF01200020F0
:1052B000B042BFD10020BDE8F0812DE9F04790B0A9
:1052C00001264FF4E01A4FF4A0200024CDF824A0CA
:1052D0000096CDE901040225EF03CDE907576846A2
:1052E000FEF77EFB4FF00F084FF4806970B9CDF8E0
:1052F0002880CDE90B54CDE90D9402210AA8FEF7D0
:1053000025FA002804BF10B0BDE8F0870096CDE96B
:105310000174CDF824A0CDE907576846FEF760FB7D
:1053200070B9CDF82880CDE90B54CDE90D94022158
:105330000AA8FEF70BFA002804BF10B0BDE8F087FA
:105340000320CDE900041020CDE904604FF4601083
:10535000CDE9084007956846FEF742FB70B9CDF8E5
:105360002880CDE90B54CDE90D9402210AA8FEF75F
:10537000EDF9002804BF10B0BDE8F087FEE700009B
:1053800038B500241D49052833D2DFE800F0030DAD
:10539000162029001A4C886940F004008861886949
:1053A00000F00400009027E0164C886940F00800E7
:1053B0008861886900F0080007E0134C886940F0B4
:1053C00010008861886900F01000009014E00F4C14
:1053D000886940F020008861886900F02000F4E7C7
:1053E0000B4C886940F040008861886900F04000FB
:1053F000EBE708A003F00AFB204638BD001002408E
:1054000000080140000C0140001001400014014060
:105410000018014050696E6D6170206572726F7284
:105420003A2077726F6E6720706F7274206E756DA0
:105430006265722E0000000016494868164A10F096
:105440000C03164818BF042B01D0082B01D00260B2
:1054500015E04A684B6802F470124FF0020C13F426
:10546000803F0CEB924203D04B6813F4003F03D013
:105470000B4B5A43026002E0074B5A4302604968F3
:10548000084AC1F30311515C026822FA01F101607C
:10549000704700000010024000127A003401002022
:1054A00000093D00F8AB00080E48016841F0010119
:1054B000016041680C4A11404160016821F41021EB
:1054C00021F080710160016821F480210160416850
:1054D00021F4FE0141604FF41F0181600349C003C4
:1054E00008607047001002400000FFF808ED00E07F
:1054F00030B40268194BDFF868C01A4C984218BFE4
:10550000B0F1804F03D0604518BFA04203D14D6871
:1055100022F070022A43984218BFB0F1804F03D0A6
:10552000604518BFA04205D1D1F80CC022F44072EA
:105530004CEA0202D1F814C022F080024CEA0202C6
:1055400002608A68C2620A688262984204BF09697E
:1055500001630121416130BC70470000002C014013
:10556000000400400008004010B5406A0021C185D9
:10557000C184FFF75EF910BD2DE9F04104460068D3
:105580000169E26821F44051114301612169A06879
:105590000143606901432068C26822F4037222F467
:1055A000A0521143C16020684169A26921F4407191
:1055B0001143416120685C4D3226A0F18041B1F574
:1055C0009C3158D0FEF7B2F900EBC00101EB00109E
:1055D00061688900B0FBF1F7FEF7A8F900EBC001A4
:1055E00001EB001061688900B0FBF1F0A5FB001031
:1055F00040096FF01801484307EB800006EB0010EC
:10560000A5FB0010400900F0F007FEF78FF900EB52
:10561000C00101EB001061688900B0FBF1F0A5FB4F
:105620000010400907EB0017FEF780F900EBC001FE
:1056300001EB001061688900B0FBF1F8FEF776F924
:1056400000EBC00101EB001061688900B0FBF1F0D4
:10565000A5FB001040096FF01801484308EB8000DB
:1056600006EB0010A5FB00102168C0F3431038447E
:105670008860BDE8F081FEF769F900EBC00101EB3D
:10568000001061688900B0FBF1F7FEF75FF900EBED
:10569000C00101EB001061688900B0FBF1F0A5FBCF
:1056A000001040096FF01801484307EB800006EB3B
:1056B0000010A5FB0010400900F0F007FEF746F9C6
:1056C00000EBC00101EB001061688900B0FBF1F054
:1056D000A5FB0010400907EB0017FEF737F900EBB8
:1056E000C00101EB001061688900B0FBF1F8FEF722
:1056F0002DF900EBC00101EB001061688900B0FBDF
:10570000F1F0A5FB001040096FF01801484308EBC9
:10571000800006EB0010A5FB00102168C0F34310C9
:1057200038448860BDE8F0811F85EB5100210148B5
:1057300003F066B8006400400021014803F060B83F
:10574000006400400146012903DB0F2901DC012030
:105750007047212903DB2A2901DC0120F8E72D29E4
:1057600003DB2F2901DC0120F2E7612903DB6D292E
:1057700001DC0120ECE7702903DB722901DC012048
:10578000E6E7912903DB9E2901DC0120E0E7C1293E
:1057900001D10120DCE7C32901D10120D8E7002095
:1057A000D6E7000010B5284801F084FE27490870AC
:1057B0002748006818B908460078FF2843D12348D5
:1057C0000178234802680068401C214B186021487A
:1057D000815418460068002826DD1E484078C01D08
:1057E0001946096888421FD11A498878FFF7AAFF2D
:1057F00058B918488078222807D0164880782F2872
:1058000003D0144880789D280BD112484078C01DE1
:1058100011490860012011490860114801F08AFA15
:1058200002E000200A49086009480068B0F5007FDE
:1058300009DD084800F032F80020084908600649F0
:1058400008600349086010BD70020020FE000020BF
:1058500004010020A0040020000100200801002015
:105860008C020020002070472DE9F04106460024FC
:10587000354600270DE02846FBF790F804432E211B
:10588000284602F097FB054605B904E024026D1C8A
:105890007F1C042FEFDB2046BDE8F08170B5054684
:1058A000002402E000202855641C2846FBF7B0F9CC
:1058B000A042F7D870BDF0B506460F4615461C4607
:1058C0003946304600F01CF9002C08DDE1B23046C4
:1058D00000F016F922462946304600F003F9F0BDE3
:1058E000F0B503460C462069C3F806006069C3F8AA
:1058F00016004FF0FF3604F1F0012EE011F8010B15
:1059000000B92AE011F8015B00BF00BF00BF00BF73
:1059100033281AD006DC01280BD003280DD0062826
:1059200018D10EE0352802D0362813D10EE00E78BB
:1059300010E00F68C3F812700CE00F68C3F80E7027
:1059400008E00F68C3F80A7004E003E00F68C3F8CA
:10595000167000BF00BF294400BF0878FF2802D09E
:10596000A0188842CAD83046F0BD00002DE9FC5F7F
:1059700004460E4600BF4A480068C4F8C002D4F886
:10598000C00218B94FF0FF30BDE8FC9F4FF0090B83
:10599000D4F8C0A206202346002259460090504663
:1059A00000F0D7FB00BF41F28837BE4200DA37462D
:1059B000102002F015FBB0F1000804D0404602F0C0
:1059C000F1FA804600E00020E061E06902F0ACFA04
:1059D00040F2DC520021E06901F014FF00220F21A7
:1059E000D4F8C00204F020FF4421E06902F068FA14
:1059F00043222CA104F1200001F0F4FF002084F8E0
:105A000038008146002539E025B1012D06D0022D50
:105A100033D119E0002020666D1C2EE0204600F0F6
:105A200013F90190E06904F1640204F12001019B83
:105A300002F08EFA04F1400001F09AFC04F14000FB
:105A400001F0A6FC6D1C18E0204600F0BBF804F144
:105A5000400001F0AEFCB8420EDD00BF00BF96FB77
:105A6000F7F1206E401C2066814204DC4FF0FF39C4
:105A7000012084F838006D1E00BF00BF94F8380084
:105A80000028C1D000BF00BFE06938B1D4F81CA025
:105A9000504601F001FF834602F09CFA484673E746
:105AA000480100203235352E3235352E3235352E2F
:105AB0003235350070B505460C461646F02E01DA33
:105AC000002070BD2078022801D00020F9E70422D0
:105AD00005F13401201DFBF76FF808B10020F0E755
